{
  "_format": "hh-sol-artifact-1",
  "contractName": "PoyoRoomBooking",
  "sourceName": "contracts/_PoyoRoomBook.sol",
  "abi": [
    {
      "inputs": [],
      "stateMutability": "nonpayable",
      "type": "constructor"
    },
    {
      "inputs": [
        {
          "internalType": "uint256",
          "name": "_branchId",
          "type": "uint256"
        },
        {
          "internalType": "uint256",
          "name": "_totalRooms",
          "type": "uint256"
        },
        {
          "internalType": "string",
          "name": "_branchName",
          "type": "string"
        }
      ],
      "name": "addBranch",
      "outputs": [],
      "stateMutability": "nonpayable",
      "type": "function"
    },
    {
      "inputs": [
        {
          "internalType": "address",
          "name": "",
          "type": "address"
        }
      ],
      "name": "addressToAmountFunded",
      "outputs": [
        {
          "internalType": "uint256",
          "name": "",
          "type": "uint256"
        }
      ],
      "stateMutability": "view",
      "type": "function"
    },
    {
      "inputs": [
        {
          "internalType": "uint256",
          "name": "_roomNumber",
          "type": "uint256"
        },
        {
          "internalType": "uint256",
          "name": "_branchId",
          "type": "uint256"
        },
        {
          "internalType": "string",
          "name": "_branchName",
          "type": "string"
        },
        {
          "internalType": "uint256",
          "name": "_time",
          "type": "uint256"
        },
        {
          "internalType": "string",
          "name": "_usedBy",
          "type": "string"
        }
      ],
      "name": "checkIn",
      "outputs": [],
      "stateMutability": "payable",
      "type": "function"
    },
    {
      "inputs": [
        {
          "internalType": "string",
          "name": "_branchName",
          "type": "string"
        },
        {
          "internalType": "uint256",
          "name": "_branchId",
          "type": "uint256"
        },
        {
          "internalType": "uint256",
          "name": "_roomNumber",
          "type": "uint256"
        }
      ],
      "name": "checkOut",
      "outputs": [],
      "stateMutability": "nonpayable",
      "type": "function"
    },
    {
      "inputs": [
        {
          "internalType": "string",
          "name": "",
          "type": "string"
        },
        {
          "internalType": "uint256",
          "name": "",
          "type": "uint256"
        }
      ],
      "name": "customers",
      "outputs": [
        {
          "internalType": "bool",
          "name": "isOccupied",
          "type": "bool"
        },
        {
          "internalType": "uint256",
          "name": "roomNumber",
          "type": "uint256"
        },
        {
          "internalType": "uint256",
          "name": "time",
          "type": "uint256"
        },
        {
          "internalType": "string",
          "name": "usedBy",
          "type": "string"
        },
        {
          "internalType": "address",
          "name": "bookingAddress",
          "type": "address"
        },
        {
          "internalType": "string",
          "name": "branch",
          "type": "string"
        }
      ],
      "stateMutability": "view",
      "type": "function"
    },
    {
      "inputs": [
        {
          "internalType": "uint256",
          "name": "_id",
          "type": "uint256"
        }
      ],
      "name": "deleteBranch",
      "outputs": [],
      "stateMutability": "nonpayable",
      "type": "function"
    },
    {
      "inputs": [
        {
          "internalType": "uint256",
          "name": "_amount",
          "type": "uint256"
        }
      ],
      "name": "getConversionRate",
      "outputs": [
        {
          "internalType": "uint256",
          "name": "",
          "type": "uint256"
        }
      ],
      "stateMutability": "view",
      "type": "function"
    },
    {
      "inputs": [],
      "name": "getLatestPrice",
      "outputs": [
        {
          "internalType": "uint256",
          "name": "",
          "type": "uint256"
        }
      ],
      "stateMutability": "view",
      "type": "function"
    },
    {
      "inputs": [
        {
          "internalType": "string",
          "name": "_branchName",
          "type": "string"
        },
        {
          "internalType": "uint256",
          "name": "_roomNumber",
          "type": "uint256"
        }
      ],
      "name": "getRoomStatus",
      "outputs": [
        {
          "components": [
            {
              "internalType": "bool",
              "name": "isOccupied",
              "type": "bool"
            },
            {
              "internalType": "uint256",
              "name": "roomNumber",
              "type": "uint256"
            },
            {
              "internalType": "uint256",
              "name": "time",
              "type": "uint256"
            },
            {
              "internalType": "string",
              "name": "usedBy",
              "type": "string"
            },
            {
              "internalType": "address",
              "name": "bookingAddress",
              "type": "address"
            },
            {
              "internalType": "string",
              "name": "branch",
              "type": "string"
            }
          ],
          "internalType": "struct PoyoRoomBooking.roomStatus",
          "name": "",
          "type": "tuple"
        }
      ],
      "stateMutability": "view",
      "type": "function"
    },
    {
      "inputs": [
        {
          "internalType": "uint256",
          "name": "",
          "type": "uint256"
        }
      ],
      "name": "motelBranches",
      "outputs": [
        {
          "internalType": "string",
          "name": "branchName",
          "type": "string"
        },
        {
          "internalType": "uint256",
          "name": "totalRooms",
          "type": "uint256"
        },
        {
          "internalType": "uint256",
          "name": "branchId",
          "type": "uint256"
        }
      ],
      "stateMutability": "view",
      "type": "function"
    },
    {
      "inputs": [],
      "name": "owner",
      "outputs": [
        {
          "internalType": "address payable",
          "name": "",
          "type": "address"
        }
      ],
      "stateMutability": "view",
      "type": "function"
    },
    {
      "inputs": [],
      "name": "totalBranches",
      "outputs": [
        {
          "internalType": "uint256",
          "name": "",
          "type": "uint256"
        }
      ],
      "stateMutability": "view",
      "type": "function"
    },
    {
      "inputs": [
        {
          "internalType": "uint256",
          "name": "_branchId",
          "type": "uint256"
        },
        {
          "internalType": "string",
          "name": "_branchName",
          "type": "string"
        },
        {
          "internalType": "uint256",
          "name": "_totalRooms",
          "type": "uint256"
        }
      ],
      "name": "updateBranchDetails",
      "outputs": [],
      "stateMutability": "nonpayable",
      "type": "function"
    }
  ],
  "bytecode": "0x6080604052600060015534801561001557600080fd5b5073d0d5e3db44de05e9f294bb0a3beeaf030de24ada600260006101000a81548173ffffffffffffffffffffffffffffffffffffffff021916908373ffffffffffffffffffffffffffffffffffffffff160217905550336000806101000a81548173ffffffffffffffffffffffffffffffffffffffff021916908373ffffffffffffffffffffffffffffffffffffffff1602179055506122dc806100ba6000396000f3fe6080604052600436106100c25760003560e01c80638a74499e1161007f5780638e15f473116100595780638e15f4731461028457806395c90089146102af578063de1bf9ad146102da578063fab6a2e514610303576100c2565b80638a74499e146101d85780638c94176a146102175780638da5cb5b14610259576100c2565b80630a1382e8146100c75780632f76ca27146100e357806336641d1f1461010c57806339e24f51146101355780633e47d6f31461015e5780636e5b6b281461019b575b600080fd5b6100e160048036038101906100dc9190611421565b610340565b005b3480156100ef57600080fd5b5061010a600480360381019061010591906114dd565b6106ae565b005b34801561011857600080fd5b50610133600480360381019061012e919061150a565b610789565b005b34801561014157600080fd5b5061015c6004803603810190610157919061157e565b6108c3565b005b34801561016a57600080fd5b5061018560048036038101906101809190611650565b610a11565b604051610192919061168c565b60405180910390f35b3480156101a757600080fd5b506101c260048036038101906101bd91906114dd565b610a29565b6040516101cf919061168c565b60405180910390f35b3480156101e457600080fd5b506101ff60048036038101906101fa91906114dd565b610a63565b60405161020e93929190611740565b60405180910390f35b34801561022357600080fd5b5061023e600480360381019061023991906118ae565b610b15565b60405161025096959493929190611934565b60405180910390f35b34801561026557600080fd5b5061026e610cb1565b60405161027b91906119c4565b60405180910390f35b34801561029057600080fd5b50610299610cd5565b6040516102a6919061168c565b60405180910390f35b3480156102bb57600080fd5b506102c4610d86565b6040516102d1919061168c565b60405180910390f35b3480156102e657600080fd5b5061030160048036038101906102fc91906119df565b610d8c565b005b34801561030f57600080fd5b5061032a60048036038101906103259190611a53565b610ffb565b6040516103379190611bba565b60405180910390f35b67016345785d8a000061035234610a29565b11610392576040517f08c379a000000000000000000000000000000000000000000000000000000000815260040161038990611c4e565b60405180910390fd5b6000871180156103b8575060046000878152602001908152602001600020600101548711155b6103f7576040517f08c379a00000000000000000000000000000000000000000000000000000000081526004016103ee90611cba565b60405180910390fd5b600015156003868660405161040d929190611d0a565b9081526020016040518091039020600089815260200190815260200160002060000160009054906101000a900460ff1615151461047f576040517f08c379a000000000000000000000000000000000000000000000000000000000815260040161047690611d6f565b60405180910390fd5b34600560003373ffffffffffffffffffffffffffffffffffffffff1673ffffffffffffffffffffffffffffffffffffffff16815260200190815260200160002060008282546104ce9190611dbe565b925050819055506040518060c0016040528060011515815260200188815260200162015180856104fe9190611e14565b426105099190611dbe565b815260200183838080601f016020809104026020016040519081016040528093929190818152602001838380828437600081840152601f19601f8201169050808301925050505050505081526020013373ffffffffffffffffffffffffffffffffffffffff16815260200186868080601f016020809104026020016040519081016040528093929190818152602001838380828437600081840152601f19601f82011690508083019250505050505050815250600386866040516105ce929190611d0a565b9081526020016040518091039020600089815260200190815260200160002060008201518160000160006101000a81548160ff0219169083151502179055506020820151816001015560408201518160020155606082015181600301908051906020019061063d929190611241565b5060808201518160040160006101000a81548173ffffffffffffffffffffffffffffffffffffffff021916908373ffffffffffffffffffffffffffffffffffffffff16021790555060a08201518160050190805190602001906106a1929190611241565b5090505050505050505050565b60008054906101000a900473ffffffffffffffffffffffffffffffffffffffff1673ffffffffffffffffffffffffffffffffffffffff163373ffffffffffffffffffffffffffffffffffffffff161461073c576040517f08c379a000000000000000000000000000000000000000000000000000000000815260040161073390611ee0565b60405180910390fd5b600460008281526020019081526020016000206000808201600061076091906112c7565b600182016000905560028201600090555050600180546107809190611f00565b60018190555050565b60008054906101000a900473ffffffffffffffffffffffffffffffffffffffff1673ffffffffffffffffffffffffffffffffffffffff163373ffffffffffffffffffffffffffffffffffffffff1614610817576040517f08c379a000000000000000000000000000000000000000000000000000000000815260040161080e90611ee0565b60405180910390fd5b604051806060016040528084848080601f016020809104026020016040519081016040528093929190818152602001838380828437600081840152601f19601f820116905080830192505050505050508152602001828152602001858152506004600086815260200190815260200160002060008201518160000190805190602001906108a5929190611241565b50602082015181600101556040820151816002015590505050505050565b60008054906101000a900473ffffffffffffffffffffffffffffffffffffffff1673ffffffffffffffffffffffffffffffffffffffff163373ffffffffffffffffffffffffffffffffffffffff1614610951576040517f08c379a000000000000000000000000000000000000000000000000000000000815260040161094890611ee0565b60405180910390fd5b604051806060016040528083838080601f016020809104026020016040519081016040528093929190818152602001838380828437600081840152601f19601f820116905080830192505050505050508152602001848152602001858152506004600086815260200190815260200160002060008201518160000190805190602001906109df929190611241565b50602082015181600101556040820151816002015590505060018054610a059190611dbe565b60018190555050505050565b60056020528060005260406000206000915090505481565b600080610a34610cd5565b90506000670de0b6b3a76400008483610a4d9190611e14565b610a579190611f63565b90508092505050919050565b6004602052806000526040600020600091509050806000018054610a8690611fc3565b80601f0160208091040260200160405190810160405280929190818152602001828054610ab290611fc3565b8015610aff5780601f10610ad457610100808354040283529160200191610aff565b820191906000526020600020905b815481529060010190602001808311610ae257829003601f168201915b5050505050908060010154908060020154905083565b600382805160208101820180518482526020830160208501208183528095505050505050602052806000526040600020600091509150508060000160009054906101000a900460ff1690806001015490806002015490806003018054610b7a90611fc3565b80601f0160208091040260200160405190810160405280929190818152602001828054610ba690611fc3565b8015610bf35780601f10610bc857610100808354040283529160200191610bf3565b820191906000526020600020905b815481529060010190602001808311610bd657829003601f168201915b5050505050908060040160009054906101000a900473ffffffffffffffffffffffffffffffffffffffff1690806005018054610c2e90611fc3565b80601f0160208091040260200160405190810160405280929190818152602001828054610c5a90611fc3565b8015610ca75780601f10610c7c57610100808354040283529160200191610ca7565b820191906000526020600020905b815481529060010190602001808311610c8a57829003601f168201915b5050505050905086565b60008054906101000a900473ffffffffffffffffffffffffffffffffffffffff1681565b600080600260009054906101000a900473ffffffffffffffffffffffffffffffffffffffff1673ffffffffffffffffffffffffffffffffffffffff1663feaf968c6040518163ffffffff1660e01b815260040160a060405180830381865afa158015610d45573d6000803e3d6000fd5b505050506040513d601f19601f82011682018060405250810190610d699190612082565b5050509150506402540be40081610d8091906120fd565b91505090565b60015481565b600081118015610db2575060046000838152602001908152602001600020600101548111155b610df1576040517f08c379a0000000000000000000000000000000000000000000000000000000008152600401610de890611cba565b60405180910390fd5b60008054906101000a900473ffffffffffffffffffffffffffffffffffffffff1673ffffffffffffffffffffffffffffffffffffffff163373ffffffffffffffffffffffffffffffffffffffff161480610eca575060038484604051610e58929190611d0a565b9081526020016040518091039020600082815260200190815260200160002060040160009054906101000a900473ffffffffffffffffffffffffffffffffffffffff1673ffffffffffffffffffffffffffffffffffffffff163373ffffffffffffffffffffffffffffffffffffffff16145b610f09576040517f08c379a0000000000000000000000000000000000000000000000000000000008152600401610f0090612286565b60405180910390fd5b60038484604051610f1b929190611d0a565b90815260200160405180910390206000828152602001908152602001600020600080820160006101000a81549060ff021916905560018201600090556002820160009055600382016000610f6f91906112c7565b6004820160006101000a81549073ffffffffffffffffffffffffffffffffffffffff0219169055600582016000610fa691906112c7565b5050600060038585604051610fbc929190611d0a565b9081526020016040518091039020600083815260200190815260200160002060000160006101000a81548160ff02191690831515021790555050505050565b611003611307565b6000821180156110145750600a8211155b611053576040517f08c379a000000000000000000000000000000000000000000000000000000000815260040161104a90611cba565b60405180910390fd5b60038484604051611065929190611d0a565b908152602001604051809103902060008381526020019081526020016000206040518060c00160405290816000820160009054906101000a900460ff1615151515815260200160018201548152602001600282015481526020016003820180546110ce90611fc3565b80601f01602080910402602001604051908101604052809291908181526020018280546110fa90611fc3565b80156111475780601f1061111c57610100808354040283529160200191611147565b820191906000526020600020905b81548152906001019060200180831161112a57829003601f168201915b505050505081526020016004820160009054906101000a900473ffffffffffffffffffffffffffffffffffffffff1673ffffffffffffffffffffffffffffffffffffffff1673ffffffffffffffffffffffffffffffffffffffff1681526020016005820180546111b690611fc3565b80601f01602080910402602001604051908101604052809291908181526020018280546111e290611fc3565b801561122f5780601f106112045761010080835404028352916020019161122f565b820191906000526020600020905b81548152906001019060200180831161121257829003601f168201915b50505050508152505090509392505050565b82805461124d90611fc3565b90600052602060002090601f01602090048101928261126f57600085556112b6565b82601f1061128857805160ff19168380011785556112b6565b828001600101855582156112b6579182015b828111156112b557825182559160200191906001019061129a565b5b5090506112c39190611355565b5090565b5080546112d390611fc3565b6000825580601f106112e55750611304565b601f0160209004906000526020600020908101906113039190611355565b5b50565b6040518060c00160405280600015158152602001600081526020016000815260200160608152602001600073ffffffffffffffffffffffffffffffffffffffff168152602001606081525090565b5b8082111561136e576000816000905550600101611356565b5090565b6000604051905090565b600080fd5b600080fd5b6000819050919050565b61139981611386565b81146113a457600080fd5b50565b6000813590506113b681611390565b92915050565b600080fd5b600080fd5b600080fd5b60008083601f8401126113e1576113e06113bc565b5b8235905067ffffffffffffffff8111156113fe576113fd6113c1565b5b60208301915083600182028301111561141a576114196113c6565b5b9250929050565b600080600080600080600060a0888a0312156114405761143f61137c565b5b600061144e8a828b016113a7565b975050602061145f8a828b016113a7565b965050604088013567ffffffffffffffff8111156114805761147f611381565b5b61148c8a828b016113cb565b9550955050606061149f8a828b016113a7565b935050608088013567ffffffffffffffff8111156114c0576114bf611381565b5b6114cc8a828b016113cb565b925092505092959891949750929550565b6000602082840312156114f3576114f261137c565b5b6000611501848285016113a7565b91505092915050565b600080600080606085870312156115245761152361137c565b5b6000611532878288016113a7565b945050602085013567ffffffffffffffff81111561155357611552611381565b5b61155f878288016113cb565b93509350506040611572878288016113a7565b91505092959194509250565b600080600080606085870312156115985761159761137c565b5b60006115a6878288016113a7565b94505060206115b7878288016113a7565b935050604085013567ffffffffffffffff8111156115d8576115d7611381565b5b6115e4878288016113cb565b925092505092959194509250565b600073ffffffffffffffffffffffffffffffffffffffff82169050919050565b600061161d826115f2565b9050919050565b61162d81611612565b811461163857600080fd5b50565b60008135905061164a81611624565b92915050565b6000602082840312156116665761166561137c565b5b60006116748482850161163b565b91505092915050565b61168681611386565b82525050565b60006020820190506116a1600083018461167d565b92915050565b600081519050919050565b600082825260208201905092915050565b60005b838110156116e15780820151818401526020810190506116c6565b838111156116f0576000848401525b50505050565b6000601f19601f8301169050919050565b6000611712826116a7565b61171c81856116b2565b935061172c8185602086016116c3565b611735816116f6565b840191505092915050565b6000606082019050818103600083015261175a8186611707565b9050611769602083018561167d565b611776604083018461167d565b949350505050565b600080fd5b7f4e487b7100000000000000000000000000000000000000000000000000000000600052604160045260246000fd5b6117bb826116f6565b810181811067ffffffffffffffff821117156117da576117d9611783565b5b80604052505050565b60006117ed611372565b90506117f982826117b2565b919050565b600067ffffffffffffffff82111561181957611818611783565b5b611822826116f6565b9050602081019050919050565b82818337600083830152505050565b600061185161184c846117fe565b6117e3565b90508281526020810184848401111561186d5761186c61177e565b5b61187884828561182f565b509392505050565b600082601f830112611895576118946113bc565b5b81356118a584826020860161183e565b91505092915050565b600080604083850312156118c5576118c461137c565b5b600083013567ffffffffffffffff8111156118e3576118e2611381565b5b6118ef85828601611880565b9250506020611900858286016113a7565b9150509250929050565b60008115159050919050565b61191f8161190a565b82525050565b61192e81611612565b82525050565b600060c0820190506119496000830189611916565b611956602083018861167d565b611963604083018761167d565b81810360608301526119758186611707565b90506119846080830185611925565b81810360a08301526119968184611707565b9050979650505050505050565b60006119ae826115f2565b9050919050565b6119be816119a3565b82525050565b60006020820190506119d960008301846119b5565b92915050565b600080600080606085870312156119f9576119f861137c565b5b600085013567ffffffffffffffff811115611a1757611a16611381565b5b611a23878288016113cb565b94509450506020611a36878288016113a7565b9250506040611a47878288016113a7565b91505092959194509250565b600080600060408486031215611a6c57611a6b61137c565b5b600084013567ffffffffffffffff811115611a8a57611a89611381565b5b611a96868287016113cb565b93509350506020611aa9868287016113a7565b9150509250925092565b611abc8161190a565b82525050565b611acb81611386565b82525050565b600082825260208201905092915050565b6000611aed826116a7565b611af78185611ad1565b9350611b078185602086016116c3565b611b10816116f6565b840191505092915050565b611b2481611612565b82525050565b600060c083016000830151611b426000860182611ab3565b506020830151611b556020860182611ac2565b506040830151611b686040860182611ac2565b5060608301518482036060860152611b808282611ae2565b9150506080830151611b956080860182611b1b565b5060a083015184820360a0860152611bad8282611ae2565b9150508091505092915050565b60006020820190508181036000830152611bd48184611b2a565b905092915050565b7f54686520416d6f756e74206d7573742062652067726561746572207468616e2060008201527f6d696e696d756d20616d6f756e74210000000000000000000000000000000000602082015250565b6000611c38602f836116b2565b9150611c4382611bdc565b604082019050919050565b60006020820190508181036000830152611c6781611c2b565b9050919050565b7f5468697320726f6f6d206e756d62657220646f6573206e6f742065786973742e600082015250565b6000611ca46020836116b2565b9150611caf82611c6e565b602082019050919050565b60006020820190508181036000830152611cd381611c97565b9050919050565b600081905092915050565b6000611cf18385611cda565b9350611cfe83858461182f565b82840190509392505050565b6000611d17828486611ce5565b91508190509392505050565b7f5468697320726f6f6d20697320616c726561647920696e207573652100000000600082015250565b6000611d59601c836116b2565b9150611d6482611d23565b602082019050919050565b60006020820190508181036000830152611d8881611d4c565b9050919050565b7f4e487b7100000000000000000000000000000000000000000000000000000000600052601160045260246000fd5b6000611dc982611386565b9150611dd483611386565b9250827fffffffffffffffffffffffffffffffffffffffffffffffffffffffffffffffff03821115611e0957611e08611d8f565b5b828201905092915050565b6000611e1f82611386565b9150611e2a83611386565b9250817fffffffffffffffffffffffffffffffffffffffffffffffffffffffffffffffff0483118215151615611e6357611e62611d8f565b5b828202905092915050565b7f596f7520646f206e6f742068617665207065726d697373696f6e20746f20706560008201527f72666f726d2074686973207461736b0000000000000000000000000000000000602082015250565b6000611eca602f836116b2565b9150611ed582611e6e565b604082019050919050565b60006020820190508181036000830152611ef981611ebd565b9050919050565b6000611f0b82611386565b9150611f1683611386565b925082821015611f2957611f28611d8f565b5b828203905092915050565b7f4e487b7100000000000000000000000000000000000000000000000000000000600052601260045260246000fd5b6000611f6e82611386565b9150611f7983611386565b925082611f8957611f88611f34565b5b828204905092915050565b7f4e487b7100000000000000000000000000000000000000000000000000000000600052602260045260246000fd5b60006002820490506001821680611fdb57607f821691505b60208210811415611fef57611fee611f94565b5b50919050565b600069ffffffffffffffffffff82169050919050565b61201481611ff5565b811461201f57600080fd5b50565b6000815190506120318161200b565b92915050565b6000819050919050565b61204a81612037565b811461205557600080fd5b50565b60008151905061206781612041565b92915050565b60008151905061207c81611390565b92915050565b600080600080600060a0868803121561209e5761209d61137c565b5b60006120ac88828901612022565b95505060206120bd88828901612058565b94505060406120ce8882890161206d565b93505060606120df8882890161206d565b92505060806120f088828901612022565b9150509295509295909350565b600061210882612037565b915061211383612037565b9250827f7fffffffffffffffffffffffffffffffffffffffffffffffffffffffffffffff048211600084136000841316161561215257612151611d8f565b5b817f8000000000000000000000000000000000000000000000000000000000000000058312600084126000841316161561218f5761218e611d8f565b5b827f800000000000000000000000000000000000000000000000000000000000000005821260008413600084121616156121cc576121cb611d8f565b5b827f7fffffffffffffffffffffffffffffffffffffffffffffffffffffffffffffff058212600084126000841216161561220957612208611d8f565b5b828202905092915050565b7f596f7520646f206e6f74206861766520656e6f756768207065726d697373696f60008201527f6e21000000000000000000000000000000000000000000000000000000000000602082015250565b60006122706022836116b2565b915061227b82612214565b604082019050919050565b6000602082019050818103600083015261229f81612263565b905091905056fea264697066735822122041b0db1ee212f8714b1d0463432f3d89e96f02093f91f06bf61700e8683933c264736f6c634300080a0033",
  "linkReferences": {},
  "deployedLinkReferences": {}
}