{
  "_format": "hh-sol-artifact-1",
  "contractName": "PoyoRoomBooking",
  "sourceName": "contracts/_PoyoRoomBook.sol",
  "abi": [
    {
      "inputs": [],
      "stateMutability": "nonpayable",
      "type": "constructor"
    },
    {
      "inputs": [
        {
          "internalType": "uint256",
          "name": "_branchId",
          "type": "uint256"
        },
        {
          "internalType": "uint256",
          "name": "_totalRooms",
          "type": "uint256"
        },
        {
          "internalType": "string",
          "name": "_branchName",
          "type": "string"
        }
      ],
      "name": "addBranch",
      "outputs": [],
      "stateMutability": "nonpayable",
      "type": "function"
    },
    {
      "inputs": [
        {
          "internalType": "uint256",
          "name": "_roomNumber",
          "type": "uint256"
        },
        {
          "internalType": "uint256",
          "name": "_branchId",
          "type": "uint256"
        },
        {
          "internalType": "string",
          "name": "_branchName",
          "type": "string"
        },
        {
          "internalType": "uint256",
          "name": "_time",
          "type": "uint256"
        },
        {
          "internalType": "string",
          "name": "_usedBy",
          "type": "string"
        }
      ],
      "name": "checkIn",
      "outputs": [],
      "stateMutability": "payable",
      "type": "function"
    },
    {
      "inputs": [
        {
          "internalType": "string",
          "name": "_branchName",
          "type": "string"
        },
        {
          "internalType": "uint256",
          "name": "_branchId",
          "type": "uint256"
        },
        {
          "internalType": "uint256",
          "name": "_roomNumber",
          "type": "uint256"
        }
      ],
      "name": "checkOut",
      "outputs": [],
      "stateMutability": "nonpayable",
      "type": "function"
    },
    {
      "inputs": [
        {
          "internalType": "string",
          "name": "",
          "type": "string"
        },
        {
          "internalType": "uint256",
          "name": "",
          "type": "uint256"
        }
      ],
      "name": "customers",
      "outputs": [
        {
          "internalType": "bool",
          "name": "isOccupied",
          "type": "bool"
        },
        {
          "internalType": "uint256",
          "name": "roomNumber",
          "type": "uint256"
        },
        {
          "internalType": "uint256",
          "name": "time",
          "type": "uint256"
        },
        {
          "internalType": "string",
          "name": "usedBy",
          "type": "string"
        },
        {
          "internalType": "address",
          "name": "bookingAddress",
          "type": "address"
        },
        {
          "internalType": "string",
          "name": "branch",
          "type": "string"
        }
      ],
      "stateMutability": "view",
      "type": "function"
    },
    {
      "inputs": [
        {
          "internalType": "uint256",
          "name": "_id",
          "type": "uint256"
        }
      ],
      "name": "deleteBranch",
      "outputs": [],
      "stateMutability": "nonpayable",
      "type": "function"
    },
    {
      "inputs": [
        {
          "internalType": "uint256",
          "name": "_amount",
          "type": "uint256"
        }
      ],
      "name": "getConversionRate",
      "outputs": [
        {
          "internalType": "uint256",
          "name": "",
          "type": "uint256"
        }
      ],
      "stateMutability": "view",
      "type": "function"
    },
    {
      "inputs": [],
      "name": "getLatestPrice",
      "outputs": [
        {
          "internalType": "uint256",
          "name": "",
          "type": "uint256"
        }
      ],
      "stateMutability": "view",
      "type": "function"
    },
    {
      "inputs": [
        {
          "internalType": "string",
          "name": "_branchName",
          "type": "string"
        },
        {
          "internalType": "uint256",
          "name": "_roomNumber",
          "type": "uint256"
        }
      ],
      "name": "getRoomStatus",
      "outputs": [
        {
          "components": [
            {
              "internalType": "bool",
              "name": "isOccupied",
              "type": "bool"
            },
            {
              "internalType": "uint256",
              "name": "roomNumber",
              "type": "uint256"
            },
            {
              "internalType": "uint256",
              "name": "time",
              "type": "uint256"
            },
            {
              "internalType": "string",
              "name": "usedBy",
              "type": "string"
            },
            {
              "internalType": "address",
              "name": "bookingAddress",
              "type": "address"
            },
            {
              "internalType": "string",
              "name": "branch",
              "type": "string"
            }
          ],
          "internalType": "struct PoyoRoomBooking.roomStatus",
          "name": "",
          "type": "tuple"
        }
      ],
      "stateMutability": "view",
      "type": "function"
    },
    {
      "inputs": [
        {
          "internalType": "uint256",
          "name": "",
          "type": "uint256"
        }
      ],
      "name": "motelBranches",
      "outputs": [
        {
          "internalType": "string",
          "name": "branchName",
          "type": "string"
        },
        {
          "internalType": "uint256",
          "name": "totalRooms",
          "type": "uint256"
        },
        {
          "internalType": "uint256",
          "name": "branchId",
          "type": "uint256"
        }
      ],
      "stateMutability": "view",
      "type": "function"
    },
    {
      "inputs": [],
      "name": "owner",
      "outputs": [
        {
          "internalType": "address payable",
          "name": "",
          "type": "address"
        }
      ],
      "stateMutability": "view",
      "type": "function"
    },
    {
      "inputs": [],
      "name": "totalBranches",
      "outputs": [
        {
          "internalType": "uint256",
          "name": "",
          "type": "uint256"
        }
      ],
      "stateMutability": "view",
      "type": "function"
    },
    {
      "inputs": [
        {
          "internalType": "uint256",
          "name": "_branchId",
          "type": "uint256"
        },
        {
          "internalType": "string",
          "name": "_branchName",
          "type": "string"
        },
        {
          "internalType": "uint256",
          "name": "_totalRooms",
          "type": "uint256"
        }
      ],
      "name": "updateBranchDetails",
      "outputs": [],
      "stateMutability": "nonpayable",
      "type": "function"
    }
  ],
  "bytecode": "0x608060405260008055600060025534801561001957600080fd5b5073d0d5e3db44de05e9f294bb0a3beeaf030de24ada600360006101000a81548173ffffffffffffffffffffffffffffffffffffffff021916908373ffffffffffffffffffffffffffffffffffffffff16021790555033600160006101000a81548173ffffffffffffffffffffffffffffffffffffffff021916908373ffffffffffffffffffffffffffffffffffffffff160217905550612276806100bf6000396000f3fe6080604052600436106100dd5760003560e01c80638da5cb5b1161007f578063bb0c829811610059578063bb0c8298146102b8578063de1bf9ad146102e3578063eeb4a9c81461030c578063fab6a2e514610335576100dd565b80638da5cb5b146102375780638e15f4731461026257806395c900891461028d576100dd565b806339e24f51116100bb57806339e24f51146101505780636e5b6b28146101795780638a74499e146101b65780638c94176a146101f5576100dd565b80630a1382e8146100e25780632f76ca27146100fe57806336641d1f14610127575b600080fd5b6100fc60048036038101906100f79190611414565b610372565b005b34801561010a57600080fd5b50610125600480360381019061012091906114d0565b61068a565b005b34801561013357600080fd5b5061014e600480360381019061014991906114fd565b610768565b005b34801561015c57600080fd5b5061017760048036038101906101729190611571565b6108a4565b005b34801561018557600080fd5b506101a0600480360381019061019b91906114d0565b6109f5565b6040516101ad91906115f4565b60405180910390f35b3480156101c257600080fd5b506101dd60048036038101906101d891906114d0565b610a2f565b6040516101ec939291906116a8565b60405180910390f35b34801561020157600080fd5b5061021c60048036038101906102179190611816565b610ae1565b60405161022e969594939291906118ce565b60405180910390f35b34801561024357600080fd5b5061024c610c7d565b604051610259919061195e565b60405180910390f35b34801561026e57600080fd5b50610277610ca3565b60405161028491906115f4565b60405180910390f35b34801561029957600080fd5b506102a2610d54565b6040516102af91906115f4565b60405180910390f35b3480156102c457600080fd5b506102cd610d5a565b6040516102da91906115f4565b60405180910390f35b3480156102ef57600080fd5b5061030a60048036038101906103059190611979565b610d60565b005b34801561031857600080fd5b50610333600480360381019061032e91906114d0565b610fd1565b005b34801561034157600080fd5b5061035c600480360381019061035791906119ed565b610fee565b6040516103699190611b54565b60405180910390f35b67016345785d8a0000610384346109f5565b116103c4576040517f08c379a00000000000000000000000000000000000000000000000000000000081526004016103bb90611be8565b60405180910390fd5b6000871180156103ea575060056000878152602001908152602001600020600101548711155b610429576040517f08c379a000000000000000000000000000000000000000000000000000000000815260040161042090611c54565b60405180910390fd5b600015156004868660405161043f929190611ca4565b9081526020016040518091039020600089815260200190815260200160002060000160009054906101000a900460ff161515146104b1576040517f08c379a00000000000000000000000000000000000000000000000000000000081526004016104a890611d09565b60405180910390fd5b6040518060c0016040528060011515815260200188815260200162015180856104da9190611d58565b426104e59190611db2565b815260200183838080601f016020809104026020016040519081016040528093929190818152602001838380828437600081840152601f19601f8201169050808301925050505050505081526020013373ffffffffffffffffffffffffffffffffffffffff16815260200186868080601f016020809104026020016040519081016040528093929190818152602001838380828437600081840152601f19601f82011690508083019250505050505050815250600486866040516105aa929190611ca4565b9081526020016040518091039020600089815260200190815260200160002060008201518160000160006101000a81548160ff02191690831515021790555060208201518160010155604082015181600201556060820151816003019080519060200190610619929190611234565b5060808201518160040160006101000a81548173ffffffffffffffffffffffffffffffffffffffff021916908373ffffffffffffffffffffffffffffffffffffffff16021790555060a082015181600501908051906020019061067d929190611234565b5090505050505050505050565b600160009054906101000a900473ffffffffffffffffffffffffffffffffffffffff1673ffffffffffffffffffffffffffffffffffffffff163373ffffffffffffffffffffffffffffffffffffffff161461071a576040517f08c379a000000000000000000000000000000000000000000000000000000000815260040161071190611e7a565b60405180910390fd5b600560008281526020019081526020016000206000808201600061073e91906112ba565b600182016000905560028201600090555050600160025461075f9190611e9a565b60028190555050565b600160009054906101000a900473ffffffffffffffffffffffffffffffffffffffff1673ffffffffffffffffffffffffffffffffffffffff163373ffffffffffffffffffffffffffffffffffffffff16146107f8576040517f08c379a00000000000000000000000000000000000000000000000000000000081526004016107ef90611e7a565b60405180910390fd5b604051806060016040528084848080601f016020809104026020016040519081016040528093929190818152602001838380828437600081840152601f19601f82011690508083019250505050505050815260200182815260200185815250600560008681526020019081526020016000206000820151816000019080519060200190610886929190611234565b50602082015181600101556040820151816002015590505050505050565b600160009054906101000a900473ffffffffffffffffffffffffffffffffffffffff1673ffffffffffffffffffffffffffffffffffffffff163373ffffffffffffffffffffffffffffffffffffffff1614610934576040517f08c379a000000000000000000000000000000000000000000000000000000000815260040161092b90611e7a565b60405180910390fd5b604051806060016040528083838080601f016020809104026020016040519081016040528093929190818152602001838380828437600081840152601f19601f820116905080830192505050505050508152602001848152602001858152506005600086815260200190815260200160002060008201518160000190805190602001906109c2929190611234565b50602082015181600101556040820151816002015590505060016002546109e99190611db2565b60028190555050505050565b600080610a00610ca3565b90506000670de0b6b3a76400008483610a199190611d58565b610a239190611efd565b90508092505050919050565b6005602052806000526040600020600091509050806000018054610a5290611f5d565b80601f0160208091040260200160405190810160405280929190818152602001828054610a7e90611f5d565b8015610acb5780601f10610aa057610100808354040283529160200191610acb565b820191906000526020600020905b815481529060010190602001808311610aae57829003601f168201915b5050505050908060010154908060020154905083565b600482805160208101820180518482526020830160208501208183528095505050505050602052806000526040600020600091509150508060000160009054906101000a900460ff1690806001015490806002015490806003018054610b4690611f5d565b80601f0160208091040260200160405190810160405280929190818152602001828054610b7290611f5d565b8015610bbf5780601f10610b9457610100808354040283529160200191610bbf565b820191906000526020600020905b815481529060010190602001808311610ba257829003601f168201915b5050505050908060040160009054906101000a900473ffffffffffffffffffffffffffffffffffffffff1690806005018054610bfa90611f5d565b80601f0160208091040260200160405190810160405280929190818152602001828054610c2690611f5d565b8015610c735780601f10610c4857610100808354040283529160200191610c73565b820191906000526020600020905b815481529060010190602001808311610c5657829003601f168201915b5050505050905086565b600160009054906101000a900473ffffffffffffffffffffffffffffffffffffffff1681565b600080600360009054906101000a900473ffffffffffffffffffffffffffffffffffffffff1673ffffffffffffffffffffffffffffffffffffffff1663feaf968c6040518163ffffffff1660e01b815260040160a060405180830381865afa158015610d13573d6000803e3d6000fd5b505050506040513d601f19601f82011682018060405250810190610d37919061201c565b5050509150506402540be40081610d4e9190612097565b91505090565b60025481565b60005481565b600081118015610d86575060056000838152602001908152602001600020600101548111155b610dc5576040517f08c379a0000000000000000000000000000000000000000000000000000000008152600401610dbc90611c54565b60405180910390fd5b600160009054906101000a900473ffffffffffffffffffffffffffffffffffffffff1673ffffffffffffffffffffffffffffffffffffffff163373ffffffffffffffffffffffffffffffffffffffff161480610ea0575060048484604051610e2e929190611ca4565b9081526020016040518091039020600082815260200190815260200160002060040160009054906101000a900473ffffffffffffffffffffffffffffffffffffffff1673ffffffffffffffffffffffffffffffffffffffff163373ffffffffffffffffffffffffffffffffffffffff16145b610edf576040517f08c379a0000000000000000000000000000000000000000000000000000000008152600401610ed690612220565b60405180910390fd5b60048484604051610ef1929190611ca4565b90815260200160405180910390206000828152602001908152602001600020600080820160006101000a81549060ff021916905560018201600090556002820160009055600382016000610f4591906112ba565b6004820160006101000a81549073ffffffffffffffffffffffffffffffffffffffff0219169055600582016000610f7c91906112ba565b5050600060048585604051610f92929190611ca4565b9081526020016040518091039020600083815260200190815260200160002060000160006101000a81548160ff02191690831515021790555050505050565b670de0b6b3a764000081610fe59190611d58565b60008190555050565b610ff66112fa565b6000821180156110075750600a8211155b611046576040517f08c379a000000000000000000000000000000000000000000000000000000000815260040161103d90611c54565b60405180910390fd5b60048484604051611058929190611ca4565b908152602001604051809103902060008381526020019081526020016000206040518060c00160405290816000820160009054906101000a900460ff1615151515815260200160018201548152602001600282015481526020016003820180546110c190611f5d565b80601f01602080910402602001604051908101604052809291908181526020018280546110ed90611f5d565b801561113a5780601f1061110f5761010080835404028352916020019161113a565b820191906000526020600020905b81548152906001019060200180831161111d57829003601f168201915b505050505081526020016004820160009054906101000a900473ffffffffffffffffffffffffffffffffffffffff1673ffffffffffffffffffffffffffffffffffffffff1673ffffffffffffffffffffffffffffffffffffffff1681526020016005820180546111a990611f5d565b80601f01602080910402602001604051908101604052809291908181526020018280546111d590611f5d565b80156112225780601f106111f757610100808354040283529160200191611222565b820191906000526020600020905b81548152906001019060200180831161120557829003601f168201915b50505050508152505090509392505050565b82805461124090611f5d565b90600052602060002090601f01602090048101928261126257600085556112a9565b82601f1061127b57805160ff19168380011785556112a9565b828001600101855582156112a9579182015b828111156112a857825182559160200191906001019061128d565b5b5090506112b69190611348565b5090565b5080546112c690611f5d565b6000825580601f106112d857506112f7565b601f0160209004906000526020600020908101906112f69190611348565b5b50565b6040518060c00160405280600015158152602001600081526020016000815260200160608152602001600073ffffffffffffffffffffffffffffffffffffffff168152602001606081525090565b5b80821115611361576000816000905550600101611349565b5090565b6000604051905090565b600080fd5b600080fd5b6000819050919050565b61138c81611379565b811461139757600080fd5b50565b6000813590506113a981611383565b92915050565b600080fd5b600080fd5b600080fd5b60008083601f8401126113d4576113d36113af565b5b8235905067ffffffffffffffff8111156113f1576113f06113b4565b5b60208301915083600182028301111561140d5761140c6113b9565b5b9250929050565b600080600080600080600060a0888a0312156114335761143261136f565b5b60006114418a828b0161139a565b97505060206114528a828b0161139a565b965050604088013567ffffffffffffffff81111561147357611472611374565b5b61147f8a828b016113be565b955095505060606114928a828b0161139a565b935050608088013567ffffffffffffffff8111156114b3576114b2611374565b5b6114bf8a828b016113be565b925092505092959891949750929550565b6000602082840312156114e6576114e561136f565b5b60006114f48482850161139a565b91505092915050565b600080600080606085870312156115175761151661136f565b5b60006115258782880161139a565b945050602085013567ffffffffffffffff81111561154657611545611374565b5b611552878288016113be565b935093505060406115658782880161139a565b91505092959194509250565b6000806000806060858703121561158b5761158a61136f565b5b60006115998782880161139a565b94505060206115aa8782880161139a565b935050604085013567ffffffffffffffff8111156115cb576115ca611374565b5b6115d7878288016113be565b925092505092959194509250565b6115ee81611379565b82525050565b600060208201905061160960008301846115e5565b92915050565b600081519050919050565b600082825260208201905092915050565b60005b8381101561164957808201518184015260208101905061162e565b83811115611658576000848401525b50505050565b6000601f19601f8301169050919050565b600061167a8261160f565b611684818561161a565b935061169481856020860161162b565b61169d8161165e565b840191505092915050565b600060608201905081810360008301526116c2818661166f565b90506116d160208301856115e5565b6116de60408301846115e5565b949350505050565b600080fd5b7f4e487b7100000000000000000000000000000000000000000000000000000000600052604160045260246000fd5b6117238261165e565b810181811067ffffffffffffffff82111715611742576117416116eb565b5b80604052505050565b6000611755611365565b9050611761828261171a565b919050565b600067ffffffffffffffff821115611781576117806116eb565b5b61178a8261165e565b9050602081019050919050565b82818337600083830152505050565b60006117b96117b484611766565b61174b565b9050828152602081018484840111156117d5576117d46116e6565b5b6117e0848285611797565b509392505050565b600082601f8301126117fd576117fc6113af565b5b813561180d8482602086016117a6565b91505092915050565b6000806040838503121561182d5761182c61136f565b5b600083013567ffffffffffffffff81111561184b5761184a611374565b5b611857858286016117e8565b92505060206118688582860161139a565b9150509250929050565b60008115159050919050565b61188781611872565b82525050565b600073ffffffffffffffffffffffffffffffffffffffff82169050919050565b60006118b88261188d565b9050919050565b6118c8816118ad565b82525050565b600060c0820190506118e3600083018961187e565b6118f060208301886115e5565b6118fd60408301876115e5565b818103606083015261190f818661166f565b905061191e60808301856118bf565b81810360a0830152611930818461166f565b9050979650505050505050565b60006119488261188d565b9050919050565b6119588161193d565b82525050565b6000602082019050611973600083018461194f565b92915050565b600080600080606085870312156119935761199261136f565b5b600085013567ffffffffffffffff8111156119b1576119b0611374565b5b6119bd878288016113be565b945094505060206119d08782880161139a565b92505060406119e18782880161139a565b91505092959194509250565b600080600060408486031215611a0657611a0561136f565b5b600084013567ffffffffffffffff811115611a2457611a23611374565b5b611a30868287016113be565b93509350506020611a438682870161139a565b9150509250925092565b611a5681611872565b82525050565b611a6581611379565b82525050565b600082825260208201905092915050565b6000611a878261160f565b611a918185611a6b565b9350611aa181856020860161162b565b611aaa8161165e565b840191505092915050565b611abe816118ad565b82525050565b600060c083016000830151611adc6000860182611a4d565b506020830151611aef6020860182611a5c565b506040830151611b026040860182611a5c565b5060608301518482036060860152611b1a8282611a7c565b9150506080830151611b2f6080860182611ab5565b5060a083015184820360a0860152611b478282611a7c565b9150508091505092915050565b60006020820190508181036000830152611b6e8184611ac4565b905092915050565b7f54686520416d6f756e74206d7573742062652067726561746572207468616e2060008201527f6d696e696d756d20616d6f756e74210000000000000000000000000000000000602082015250565b6000611bd2602f8361161a565b9150611bdd82611b76565b604082019050919050565b60006020820190508181036000830152611c0181611bc5565b9050919050565b7f5468697320726f6f6d206e756d62657220646f6573206e6f742065786973742e600082015250565b6000611c3e60208361161a565b9150611c4982611c08565b602082019050919050565b60006020820190508181036000830152611c6d81611c31565b9050919050565b600081905092915050565b6000611c8b8385611c74565b9350611c98838584611797565b82840190509392505050565b6000611cb1828486611c7f565b91508190509392505050565b7f5468697320726f6f6d20697320616c726561647920696e207573652100000000600082015250565b6000611cf3601c8361161a565b9150611cfe82611cbd565b602082019050919050565b60006020820190508181036000830152611d2281611ce6565b9050919050565b7f4e487b7100000000000000000000000000000000000000000000000000000000600052601160045260246000fd5b6000611d6382611379565b9150611d6e83611379565b9250817fffffffffffffffffffffffffffffffffffffffffffffffffffffffffffffffff0483118215151615611da757611da6611d29565b5b828202905092915050565b6000611dbd82611379565b9150611dc883611379565b9250827fffffffffffffffffffffffffffffffffffffffffffffffffffffffffffffffff03821115611dfd57611dfc611d29565b5b828201905092915050565b7f596f7520646f206e6f742068617665207065726d697373696f6e20746f20706560008201527f72666f726d2074686973207461736b0000000000000000000000000000000000602082015250565b6000611e64602f8361161a565b9150611e6f82611e08565b604082019050919050565b60006020820190508181036000830152611e9381611e57565b9050919050565b6000611ea582611379565b9150611eb083611379565b925082821015611ec357611ec2611d29565b5b828203905092915050565b7f4e487b7100000000000000000000000000000000000000000000000000000000600052601260045260246000fd5b6000611f0882611379565b9150611f1383611379565b925082611f2357611f22611ece565b5b828204905092915050565b7f4e487b7100000000000000000000000000000000000000000000000000000000600052602260045260246000fd5b60006002820490506001821680611f7557607f821691505b60208210811415611f8957611f88611f2e565b5b50919050565b600069ffffffffffffffffffff82169050919050565b611fae81611f8f565b8114611fb957600080fd5b50565b600081519050611fcb81611fa5565b92915050565b6000819050919050565b611fe481611fd1565b8114611fef57600080fd5b50565b60008151905061200181611fdb565b92915050565b60008151905061201681611383565b92915050565b600080600080600060a086880312156120385761203761136f565b5b600061204688828901611fbc565b955050602061205788828901611ff2565b945050604061206888828901612007565b935050606061207988828901612007565b925050608061208a88828901611fbc565b9150509295509295909350565b60006120a282611fd1565b91506120ad83611fd1565b9250827f7fffffffffffffffffffffffffffffffffffffffffffffffffffffffffffffff04821160008413600084131616156120ec576120eb611d29565b5b817f8000000000000000000000000000000000000000000000000000000000000000058312600084126000841316161561212957612128611d29565b5b827f8000000000000000000000000000000000000000000000000000000000000000058212600084136000841216161561216657612165611d29565b5b827f7fffffffffffffffffffffffffffffffffffffffffffffffffffffffffffffff05821260008412600084121616156121a3576121a2611d29565b5b828202905092915050565b7f596f7520646f206e6f74206861766520656e6f756768207065726d697373696f60008201527f6e21000000000000000000000000000000000000000000000000000000000000602082015250565b600061220a60228361161a565b9150612215826121ae565b604082019050919050565b60006020820190508181036000830152612239816121fd565b905091905056fea2646970667358221220430cda1f88ae703b35b05e9e35076ac701c3c4f47dc69d1f9be18b7f706a415364736f6c634300080a0033",
  "linkReferences": {},
  "deployedLinkReferences": {}
}